:020000040800F2
:10000000680600200101000841350008A926000803
:100010003D350008A5020008A538000800000000D2
:10002000000000000000000000000000753800081B
:10003000E503000800000000453500087938000895
:100040001B0100081B0100081B0100081B01000820
:100050001B0100081B0100081B0100081B01000810
:100060001B010008E9030008F10300081B01000858
:100070001B0100081B0100081B0100081B010008F0
:100080001B0100081B0100081B0100081B010008E0
:100090001B0100081B0100081B010008F9030008F0
:1000A0001B010008813800081B0100081B01000823
:1000B0001B0100088D380008993800081B01000852
:1000C0001B0100081B0100081B0100081B010008A0
:1000D0001B0100081B0100081B0100081B01000890
:1000E0001B0100081B0100081B010008DFF80CD0F1
:1000F00000F0C0F800480047A93800086806002052
:100100000648804706480047FEE7FEE7FEE7FEE7B1
:10011000FEE7FEE7FEE7FEE7FEE7FEE77D380008C4
:10012000ED000008D2B201E000F8012B491EFBD21D
:1001300070470022F6E710B513460A4604461946F2
:10014000FFF7F0FF204610BD30B480EA010202F054
:10015000004530F0004221F0004013D090B1C30DB3
:10016000D40DC2F31601C0F31600E41A41F40001E5
:1001700040F400027D34914201D3641C00E0490048
:10018000002C02DA30BC002070474FF4000000233E
:10019000914201D3891A034340084FEA4101F7D144
:1001A00051B1914202D14FF0004105E002D24FF02F
:1001B000010101E06FF0010103EBC450284430BCA1
:1001C00000F021B8002801DBC0F10040002901DB6C
:1001D000C1F10041814201D20120704700207047E7
:1001E000002801DBC0F10040002901DBC1F1004122
:1001F000814201D9012070470020704796230022D8
:10020000114600F009B80029A8BF7047401C4900FA
:1002100008BF20F00100704710B4B0FA80FC00FA6B
:100220000CF050EA010404BF10BC704749B1CCF196
:10023000200421FA04F411FA0CF118BF0121214322
:100240000843A3EB0C01CB1D4FEA00614FEA1020DD
:1002500042BF002010BC704700EBC350104400297F
:10026000A4BF10BC7047401C490008BF20F001002B
:1002700010BC70471CB5094800900948019005461C
:10028000009C06E0E06840F0010394E8070098470E
:100290001034AC42F6D3FFF72DFF0000A43A00085B
:1002A000C43A0008FEE7000040F21400C2F2000069
:1002B0000021017040F21200C2F20000018040F201
:1002C0000400C2F200000122027040F21800C2F2E3
:1002D0000000017040F21600C2F20000018040F2FE
:1002E0000500C2F20000027040F21C00C2F20000E1
:1002F000017040F21A00C2F20000018040F20601D3
:1003000040F28C10C2F20001C2F200000A7001F04B
:100310002FBC000040F2FC00C2F20000026848F668
:100320009F41D162C16000230421936301F06CBF3F
:1003300002280ED0012819D0002818BF704740F2BB
:10034000FC00C2F20000026800230421936301F064
:10035000BBBF40F2FC00C2F20000016847F6465203
:10036000CA62C26043F6A3608863704710B540F26A
:10037000FC04C2F200042046042101F0FFFC012825
:1003800008D1206800218163C162E1602046042118
:1003900001F03AFF206848F69F41C162E16044F2F3
:1003A000506181634FF4967000F0FAF8206847F6C8
:1003B0004651C162E16043F6A36181634FF49670D8
:1003C00000F0EEF8206845F6DF51C162E16042F6C8
:1003D000F06181634FF4967000F0E2F8206800212C
:1003E000816310BD70470000082000F00BBA0000C8
:1003F000102000F007BA0000202000F003BA00002F
:10040000EFF3108072B600BFFEE70000002804BFC3
:1004100001207047B0B5044690F8200010B920467E
:1004200000F06EF82068016841F00101016000F001
:1004300009FB054620684168C90705D100F002FBA9
:10044000401B0B28F6D310E0016821F00201016087
:1004500000F0F8FA054600BF2068416889070DD50D
:1004600000F0F0FA401B0B28F6D3606A052140F437
:1004700000306062012084F82010B0BD217E026847
:10048000012922F0800208BF80320260617E02688A
:10049000012922F0400208BF40320260A17E0268BA
:1004A000012922F0200208BF20320260E17E0268AA
:1004B000012922F0100218BF10320260217F026869
:1004C000012922F0080208BF08320260617F026839
:1004D000012922F0040208BF04320260D4E901C2FB
:1004E000D4E9033561691A432A431143ACF101028F
:1004F0001143C16100200121606284F82010B0BD69
:10050000B0B586B0006846F20042C4F20002002195
:1005100090420591CDE90311029101D006B0B0BD22
:1005200041F21800C4F20200426840F6004442F072
:10053000007242604268C4F2010402F0007201924B
:10054000019A026802AD42F008020260006800F001
:100550000800019001984FF48070CDE902010491E8
:100560002046294600F05AF94FF40070029002200C
:100570000390032005902046294600F04FF90420FF
:10058000C4F20100016849F6FF72CFF6FF02114084
:1005900041F0E06141F48041016006B0B0BD00006F
:1005A000B0B5044600F04EFA054640F20700C2F22C
:1005B00000000078611C18BF044400BF00F042FA3C
:1005C000401BA042FAD3B0BD80B5202846D01028E9
:1005D00023D0082840F0158140F60040C4F2010005
:1005E000082100F01BFA00285ED0012840F00981A4
:1005F00040F20400C2F200000178002940F2140128
:10060000C2F200014DD10A78022A4AD103220A70AF
:1006100040F21201C2F2000140E040F60040C4F294
:100620000100102100F0FAF9002850D0012840F014
:10063000E88040F20500C2F200000178002940F293
:100640001801C2F200012CD10A78022A29D1032212
:100650000A7040F21601C2F200011FE040F60040AD
:10066000C4F20100202100F0D9F9002842D001286D
:1006700040F0C78040F20600C2F200000178002975
:1006800040F21C01C2F200010BD10A78022A08D103
:1006900003220A7040F21A01C2F2000100220A800D
:1006A0003DE00120087080BD40F21400C2F200005D
:1006B000017801295ED140F20401C2F200010A78FA
:1006C000012A57D140F21202C2F2000224E040F2A5
:1006D0001800C2F200000178012923D140F205017F
:1006E000C2F200010A78012A1CD140F21602C2F2BD
:1006F000000211E040F21C00C2F200000178012962
:1007000024D140F20601C2F200010A78012A1DD16B
:1007100040F21A02C2F20002002313800B70022181
:10072000017080BD017803293CD140F20502C2F27C
:1007300000021178022935D140F21601C2F20001FF
:1007400000230B8002210170022026E0017803299A
:1007500037D140F20602C2F200021178022930D1EC
:1007600040F21A01C2F2000100230B800221017045
:10077000032012E00178032934D140F20402C2F2CE
:100780000002117802292DD140F21201C2F20001BB
:1007900000230B800221017001201370BDE880400E
:1007A00002F03CBB017861BB0021017040F2050002
:1007B000C2F200000122027040F21600C2F20000F4
:1007C0001EE00178002918BF80BD0021017040F2B1
:1007D0000600C2F200000122027040F21A00C2F2CA
:1007E00000000DE0017861B90021017040F20400C1
:1007F000C2F200000122027040F21200C2F20000B8
:10080000018080BD40F21441C4F201010A68024235
:1008100014BF08607047FFF7D7BE00002DE9F04F06
:1008200082B00E68002E00F0F68041F20042C4F261
:100830000102042340F2004E904208BF03234FF60A
:10084000FF7CC4F2010E009300240123C1F2100CBE
:100850004FF0000A4FF0000943E0012704F00C03B9
:100860000F229A402BEA020207FA03F34FEA9A0595
:100870001A4346F825204E6840F20C45F202DEF895
:10088000082054BF22EA080242EA0802C4F2010525
:10089000CEF808202A68B30254BF22EA080242EACE
:1008A00008022A60B303DEF8042054BF22EA0802DB
:1008B00042EA0802F303CEF80420DEF800204FF0ED
:1008C000010354BF22EA080242EA0802CEF80020DF
:1008D0000E680AF1010A36FA0AF204F1040400F083
:1008E0009A8003FA0AFB16EA0B08F1D04E686645B7
:1008F00010DC122E50D8DFE806F0330A41454F4F86
:100900004F4F4F4F4F4F4F4F4F4F4F484C00D1F825
:100910000C9041E04FF6FF72C1F2210296420FDCCB
:100920000022C1F2110296421AD00022C1F2120234
:10093000964215D00022C1F22102964210D02BE03F
:100940000022C1F2220296420AD00022C1F23102F4
:10095000964205D00022C1F2320296421CD100BF5D
:100960008A6842B1012A14BFC0F814B0C0F810B0B0
:100970004FF0080910E04FF004090DE0CA6802F1D9
:10098000080909E04FF0000906E0CA6802F104090D
:1009900002E0CA6802F10C0922460646B8F5807FDB
:1009A00024BF203A043637680F25954027EA05050D
:1009B00009FA02F22A433260CA79D2067FF588AF7B
:1009C00041F21803C4F202031A68AEF57E7642F0D3
:1009D00001021A601A6802F001020192019A2AF0DB
:1009E000030256F802B040F60002C4F2010290423F
:1009F0000FD040F60042C4F2010290423FF42DAF06
:100A000041F20002C4F20102009F904208BF022797
:100A100024E7002722E702B0BDE8F08F8068084095
:100A200018BF012070470000C26802EA0103914329
:100A300041EA034101617047002A08BF09040161CE
:100A40007047000040F26020C2F20000006870476A
:100A5000002804BF01207047F0B581B0044690F82B
:100A60003D0028B9002084F83C00204600F096FBA9
:100A7000242084F83D002068016821F00101016014
:100A8000016841F400410160016821F40041016006
:100A900000F082FD636848F2A16CC0F2010C40F6E0
:100AA0000011C0F23D0163453CBF48F28041C0F2F5
:100AB0001E01884202D2012001B0F0BD4DF68361D3
:100AC000C4F21B31A0FB01122168970CD1F804E09D
:100AD0004FF496762EF03F0545EA92454D607743F8
:100AE00048F638160D6AC0F24106A7FB067625F0D7
:100AF0003F07634538BF960C721C3A430A62CA69C5
:100B000048F2A0664CF6FF77C0F20106B34222EA33
:100B1000070C0AD801385A00B0FBF2F001306FF32D
:100B20001F30042898BF042020E0A2681927002A5B
:100B300008BF032701385F43B0FBF7F701373F05D4
:100B400009D052B119225A43B0FBF2F0042201300D
:100B500062F31F3008E0012008E003EB4302B0FB22
:100B6000F2F001306FF31F3040F4004040EA0C0017
:100B7000C8610868D4E9072320F0C0001043184377
:100B80000860886848F2FF3204F10C0790438CCF6C
:100B900018431043A6698860C86820F0FF003843F6
:100BA0003043C860086840F0010008600020202140
:100BB000206484F83D10206384F83E0001B0F0BD4D
:100BC0002DE9F04F85B004460020984692468B46AA
:100BD0000490FFF737FF94F83D10202909D105460E
:100BE0002068806910F0020007D194F83C000128C9
:100BF00028D1022005B0BDE8F08F012686EA500713
:100C000007E000BF2068806910F0020086EA500704
:100C1000EBD0FFF717FF401B1A28F3D32068806939
:100C20008007EFD500202021206384F83D1084F850
:100C30003E00216C41F020012164F90784F83C005A
:100C4000D3D1D6E70121226884F83C101368DDE98E
:100C50000F090E99DB0703D1136843F001031360FA
:100C6000136823F400631360222284F83D2040229D
:100C700084F83E200022226461626085608D5946BE
:100C800020850020CFF6FF70E062204652464346A2
:100C9000CDE9009501F00AFD18B1012005B0BDE8CD
:100CA000F08F208D022810D0012824D0002838D1C0
:100CB00000200390206841690391816903910399A1
:100CC000016841F40071016037E02068016841F477
:100CD00000610160EFF3108072B60020039020687D
:100CE00041690391816903910399016821F480614D
:100CF000016062B621E02068016821F48061016032
:100D0000EFF3108072B600200390206841690391D0
:100D1000816903910399016841F40071016062B631
:100D20000BE02068016841F48061016000210391BB
:100D300041690391806903900398208D002800F099
:100D40001F8140F200064FF0010A09F10107C2F2CB
:100D500000064FF02308032813D802286DD001287D
:100D60003CD02068B346406910F0040040F0938006
:100D70008AEA900622E000BF20684069400640F100
:100D80001F81206850F8141F49063AD40168C9062B
:100D900000F1FD80FFF756FEB9F1000FECD0401BCB
:100DA0004845EED9E8E720684069400763D52068E8
:100DB000406910F004008AEA90066CD1002FF6D04A
:100DC000FFF740FEB9F1000FEDD0401B4845EED9CA
:100DD000E9E720684069400640F1F280206850F859
:100DE000141F490600F1BB800168C90600F1CF80DD
:100DF000FFF728FEB9F1000FEBD0401B4845EDD9B5
:100E0000E7E72068616A00690870606A228D013036
:100E1000013A606222852168638D013B63854B69DD
:100E20005B0740F1A98092B2032A03D10A6822F439
:100E300080620A600969017095E02068406910F0DD
:100E4000040077D18AEA900B0AE0206840694007E5
:100E50005FD52068406910F004008AEA900B69D1E0
:100E6000002FF6D0FFF7EEFDB9F1000FEDD0401BDB
:100E70004845EED9E9E700212020216384F83D00B0
:100E800084F83E10206C40F020002064F00784F8C5
:100E90003C107FF402AF20684BF289520168C1F226
:100EA000F84221F480610160EFF3108072B620688F
:100EB000616A00695E460870606A218D01300139FF
:100EC00060622185618D01396185DBF80010C908F8
:100ED000A1FB0212110A01FB08F1049104990139E6
:100EE0000491049900295ED021684A695207F5D51A
:100EF0000A6842F400720A6009690170606A218D13
:100F000001306062481E2085608D0138608562B6C0
:100F100025E000212020216384F83D0084F83E1064
:100F2000206C40F0200020645FEACB7084F83C1015
:100F30007FF4B3AEEFF3108072B62068616A026886
:100F400042F40072026000690870606A218D01300D
:100F50006062481E2085608D0138608562B6206819
:100F6000616A00690870606A218D01306062481E04
:100F70002085608D01386085208D00287FF4EBAEE0
:100F8000202084F83D00002084F83E0024E06FF02B
:100F90001001016000202021206384F83D1084F8B6
:100FA0003E00206C16E000202021206384F83D10D4
:100FB00084F83E00206C40F02000206462B60AE015
:100FC00000202021206384F83D1084F83E00206C2E
:100FD00040F0200020640120002184F83C1005B07E
:100FE000BDE8F08F2DE9F04F83B0994692468B46CD
:100FF0000446FFF727FD94F83D10202909D1054646
:101000002068806910F0020007D194F83C000128A4
:1010100028D1022003B0BDE8F08F012787EA5006EF
:1010200007E000BF2068806910F0020087EA5006E0
:10103000EBD0FFF707FD401B1A28F3D32068806927
:101040008007EFD500202021206384F83D1084F82C
:101050003E00216C41F020012164F10784F83C003E
:10106000D3D1D6E70121226884F83C101368DDE96A
:101070000D080C99DB0703D1136843F001031360DB
:10108000136823F400631360212284F83D2040227A
:1010900084F83E200022226461626085608D59469A
:1010A00020850020CFF6FF70E062204652464B4676
:1010B000CDE9008501F032FC00286AD1208DC0B353
:1010C00008F1010604E000BF2068406900064BD526
:1010D000206850F8141F09060DD4016849053ED454
:1010E000002EF5D0FFF7AEFCB8F1000FECD0401B9E
:1010F0004045EDD9E8E7606A2168034613F8012B03
:101100000A61228D6362531E2385678D013F6785C7
:101110004F697F070AD51B0408D0437802300B6162
:101120006062901E2085608D01386085208D0028CA
:10113000CED1204641462A4601F0E8FC08BB206893
:10114000016841F400710160202084F83D00002016
:1011500084F83E0084F83C0003B0BDE8F08F6FF4E3
:1011600080610160042000E0202000212022216312
:1011700084F83D2084F83E10226C1043206484F8EB
:101180003C10206C042804D12068016841F40071EF
:101190000160012003B0BDE8F08F000010B586B0FB
:1011A000016845F20040C4F2000081424FF00001A6
:1011B000CDE90411CDE9021101D006B010BD41F214
:1011C0001804C4F20204216800F5384041F0080117
:1011D0002160216801F0080101910199C02102916B
:1011E000122103910321059102A9FFF717FB606803
:1011F00040F400106060606800F4001001900198F5
:1012000006B010BD002804BF0120704770B5044629
:101210000068D4E901124CF6CC43036045F2555303
:10122000036041608260FFF70DFC2168CA68920785
:1012300013D0054641F23D3604E000BF2168C8687E
:1012400080070AD0FFF7FEFB401BB042F6D32068B0
:10125000C0688007F2D0032070BD4AF6AA2008605B
:10126000002070BD40F2070040F26021C2F2000091
:10127000C2F2000100780A6810440860704700005C
:1012800080B542F20000C4F20200016841F0100192
:101290000160032000F092F8032000F005F800F050
:1012A0002BF8002080BD0000B0B540F20702C2F26A
:1012B000000240F200011278C2F200014FF47A738A
:1012C0000968B3FBF2F20446B1FBF2F1084600F004
:1012D0002BFB0F2C4FF001050CD858B94FF0FF3005
:1012E00021460022002500F03DF840F20800C2F23D
:1012F000000004602846B0BD80B582B041F21800FD
:10130000C4F20200016841F001010160016801F0CE
:10131000010101910199416841F0805141604068AB
:1013200000F0805000900098052000F047F804205D
:10133000C4F201000168022262F31A61016002B086
:1013400080BD0000002848BF704700F01F01012247
:1013500002FA01F14EF200124009CEF2000242F808
:101360002010704710B54EF60C5CCEF2000CDCF885
:101370000030C3F3022E8EF00704042C28BF04248F
:10138000BEF103034FF0FF3E0EFA04F438BF002312
:10139000A14399400EFA03F39A43114300F16042CE
:1013A00000F00F03090102F56442043B6344002886
:1013B00048BF03F10C02117010BD00004EF60C5135
:1013C000CEF200010A684FF6FF031A4060F30A22CA
:1013D00042F0806040F0FD7008607047002804BF54
:1013E000012070472DE9F04381B042F20008C4F2B9
:1013F00002080446D8F800000D4600F007008842B5
:101400000CD2D8F8000020F007002843C8F80000EC
:10141000D8F8000000F00700A8426BD1206841F224
:1014200004098107C4F2020917D5410705D5D9F887
:10143000001041F4E061C9F80010010705D5D9F8A2
:10144000001041F46051C9F80010D9F80010A268EA
:1014500021F0F0011143C9F80010C00741D1D8F8BC
:10146000000000F00700A8420CD9D8F8000020F0D6
:1014700007002843C8F80000D8F8000000F0070073
:10148000A84237D12068410707D5D9F80010E26893
:1014900021F4E0611143C9F80010000708D5D9F81C
:1014A0000000216920F4605040EAC100C9F8000042
:1014B000D9F8002002F00C00082841F20020C0F208
:1014C0007A004DD143F69223C2F38341C0F6000364
:1014D000595CD20338D440F60010C0F23D004843B6
:1014E0003EE06068022809D0012828D159F8041C80
:1014F000890307D4012001B0BDE8F08359F8041C2A
:101500008901F7D5D9F8001021F003010843C9F883
:101510000000FFF797FA064641F28837D9F8000035
:10152000616800F00C00B0EB810F98D0FFF78AFAE9
:10153000801BB842F2D9032001B0BDE8F08359F80E
:10154000041C8907D6D5DDE7D9F8002043F690239F
:10155000C2F34042C0F600039A5C4843B0FBF2F08D
:10156000D9F8001043F67822C1F30311C0F6000247
:10157000515C40F2000220FA01F140F20800C2F290
:1015800000000068C2F200021160FFF78DFE00202B
:1015900001B0BDE8F083000040F2000041F2040118
:1015A000C2F20000C4F202010068096843F6882212
:1015B000C1F30221C0F60002515CC8407047000030
:1015C00040F2000041F20401C2F20000C4F2020144
:1015D0000068096843F68822C1F3C221C0F6000200
:1015E000515CC84070470000002804BF01207047CC
:1015F0002DE9F04182B00446007841F20006C007B0
:10160000C4F2020649D0706800F00C00042809D129
:101610003068800341D5606800283ED1012002B0C7
:10162000BDE8F081706800F00C00082802D17068F5
:10163000C003EDD465682DB1B5F5A02F0AD0B5F57E
:10164000803F0BD0306820F480303060306820F468
:10165000802006E0306840F480203060306840F43C
:1016600080303060FFF7EEF9002D054612D000BF44
:101670003068800311D4FFF7E5F9401B6428F7D9DF
:1016800018E100BFFFF7DEF9401B64284FF00300AC
:1016900000F2D88030688003F4D42078800719D510
:1016A000706810F00C0F07D0706800F00C0008286C
:1016B00027D17068C00324D43068800703D520691F
:1016C000012840F0A6803068616920F0F80040EA07
:1016D000C1003060207800074ED5A06938B30020E3
:1016E000C4F242200121C0F88014FFF7ABF905468F
:1016F000706A80072DD4FFF7A5F9401B0228F7D99F
:10170000D8E02069002840F20000C4F2422000F036
:10171000A88001210160FFF795F905463068800730
:10172000D1D4FFF78FF9401B0228F7D9C2E000207F
:10173000C4F242200021C0F88014FFF783F9054667
:10174000706A800718D5FFF77DF9401B0228F7D98A
:10175000B0E040F20000C2F20000006844F6D3514D
:10176000C1F26201A0FB0101480A019000BF01988B
:10177000411E00280191F9D12078400717D4E5696E
:101780008DB1706800F00C00082846D1012D40D0C2
:101790007068216A00F480328A423AD1616A00F4AA
:1017A0007010884235D1002002B0BDE8F081F069A8
:1017B0005FEAC00808D4F06940F08050F061F06939
:1017C00000F080500090009847F20007C4F2000734
:1017D0003868C0050FD4386840F480703860FFF76F
:1017E00031F905463868C00505D4FFF72BF9401BD1
:1017F0006428F7D95EE0E5681DB1052D42D0012DC2
:1018000044D0306A20F001003062306A20F00400D9
:101810003FE0012002B0BDE8F0810027C4F242277A
:1018200000203866FFF70EF9022D05460ED100BFE5
:101830003068800155D5FFF705F9401B02284FF0AD
:101840000300F5D902B0BDE8F08100BF3068800127
:10185000A9D5FFF7F7F8401B02284FF00300F5D990
:10186000F0E700210160FFF7EDF8054630688007DA
:101870007FF530AFFFF7E6F8401B02284FF003007A
:10188000F4D9DFE7306A40F004003062306A40F09B
:1018900001003062FFF7D6F8002D054641F2883787
:1018A00013D000BF306A800712D4FFF7CBF8401B7B
:1018B000B842F7D9032002B0BDE8F081FFF7C2F8C3
:1018C000401BB8424FF00300BCD8306A8007F5D403
:1018D000B8F1000F3FF553AFF06920F08050F06190
:1018E0004DE7206AB0F5803F05D17168A26821F408
:1018F0000031114371607168626A21F474111143FF
:101900000843706001203866FFF79CF8044600BF6A
:10191000306880013FF547AFFFF794F8001B0228BD
:101920004FF00300F4D98DE7411E0020B0EB116F9A
:101930001CBF012070474EF21002CEF2000251602F
:101940004EF62351CEF20001F0230B700721906078
:1019500011607047704700007047000090F83C200D
:10196000012A4FF0020234D010B5012380F83C3038
:1019700080F83D200268D2F804E0D2F808C00C6874
:101980002EF07003234340F2FF74C4F20004A2421D
:10199000536005DCB2F1804F0ED040F2004307E007
:1019A00042F60043C4F201039A4205D040F6000318
:1019B000C4F200039A4204D149682CF08003194311
:1019C00091600121002280F83D1080F83C20BDE8A4
:1019D0001040104670470000002804BF01207047E7
:1019E00010B5044690F83D0028B9002084F83C006A
:1019F000204600F065F8022084F83D00206840F29F
:101A0000FF730268C4F2000342F6004C9842C4F22D
:101A1000010C05DCB0F1804F0AD040F2004103E038
:101A2000604505D040F60001C4F20001884203D1B0
:101A3000A16822F070020A43984205DCB0F1804FA1
:101A40000AD040F2004103E0604505D040F60001B5
:101A5000C4F20001884203D1216922F440720A4392
:101A6000A36922F08001D4F804E0E26819436045DC
:101A70000160C262C0F828E002D16169CCF8301080
:101A8000012141610269D20703D0026922F00102FB
:101A90000261002084F8461084F83E1084F83F105C
:101AA00084F8401084F8411084F8421084F8431000
:101AB00084F8441084F8451084F83D1010BD0000EF
:101AC00010B584B0006840F20041C4F200018842C1
:101AD00022D040F60001C4F2000188422ED042F626
:101AE0000041C4F2010188421CBF04B010BD41F2A4
:101AF0001C00C4F2020050F8041C022241F40061F0
:101B000040F8041C50F8040C022100F4006003901B
:101B100003981920192422E041F21C00C4F20200AB
:101B20000168032241F0020101600068022100F017
:101B30000200029002981D201D2410E041F21C00BA
:101B4000C4F202000168032241F004010160006850
:101B5000022100F00400019001981E201E24FFF7CE
:101B600001FC204604B0BDE81040FFF7EBBB0000CD
:101B700090F83D1001291CBF01207047022180F818
:101B80003D10006840F2FF72C168C4F2000290424A
:101B900041F00101C16005DCB0F1804F0ED040F290
:101BA000004107E042F60041C4F20101884205D03D
:101BB00040F60001C4F20001884206D1816801F0BC
:101BC0000701062904BF00207047016841F00101A8
:101BD000016000207047000090F83C20012A4FF07F
:101BE000020200F0C68080B5012380F83C3080F806
:101BF0003D20D0F800C04FF67772DCF8083023EAB9
:101C00000202CCF808200B684F2B28DC1F2B44DD88
:101C1000202B45D0302B43D0402B40F0AC80D1F866
:101C200004E0C968DCF82030DCF8202022F0010252
:101C3000CCF82020DCF8182022F0F00242EA011152
:101C400023F00A0242EA0E02CCF81810CCF8202049
:101C5000DCF8081041F0470121F030017EE06F2BE5
:101C600026DDB3F5005F47D0B3F5805F78D0702BE9
:101C700040F08180D1E901E3C968DCF8082043EA3B
:101C80000E0322F47F4243EA01211143CCF80810ED
:101C9000DCF8081041F0770160E00BB1102B6AD13D
:101CA000DCF8081021F07001194341F0070155E0FC
:101CB000502B34D0602B5ED1D1F804E0C968DCF839
:101CC0002030DCF8202022F01002CCF82020DCF8B4
:101CD000182022F4704242EA013123F0A00242EAC5
:101CE0000E12CCF81810CCF82020DCF8081041F0C7
:101CF000670121F0100131E0D1E901E3C968DCF8A6
:101D0000082043EA0E0322F47F4243EA01211143F3
:101D1000CCF80810DCF8081041F480411EE0D1F83E
:101D200004E0C968DCF82030DCF8202022F0010251
:101D3000CCF82020DCF8182022F0F00242EA011151
:101D400023F00A0242EA0E02CCF81810CCF8202048
:101D5000DCF8081041F0570121F02001CCF8081000
:101D60000022012180F83D10002180F83C10BDE8E0
:101D70008040104670470122F3E70000082907D091
:101D8000042908D0002914BF41303E300078704744
:101D90004030007870473F3000787047704700004F
:101DA00070B504460068C5680669B10716D515F018
:101DB000020113D06FF002010161012121778069D6
:101DC000800703D02046FFF7E9FF05E0204600F03A
:101DD0008DF8204600F016FA00202077700718D5FD
:101DE00015F0040015D020686FF004010161022194
:101DF0002177806910F4407F03D02046FFF7CEFFA3
:101E000005E0204600F072F8204600F0FBF90020C3
:101E10002077300717D515F0080014D020686FF030
:101E20000801016104212177C069800703D02046A1
:101E3000FFF7B4FF05E0204600F058F8204600F018
:101E4000E1F900202077F00618D515F0100015D024
:101E500020686FF01001016108212177C06910F43A
:101E6000407F03D02046FFF799FF05E0204600F0B1
:101E70003DF8204600F0C6F900202077F00718BF93
:101E800015F0010002D1300609D412E020686FF08D
:101E900001010161204600F069FA300609D515F00C
:101EA000800006D020686FF0800101612046FFF7B6
:101EB00051FD700609D515F0400006D020686FF07E
:101EC00040010161204600F03FFBB00658BF70BDE5
:101ED00015F0200008D021686FF0200220460A612A
:101EE000BDE87040FFF738BD70BD000070470000CE
:101EF00090F83C30012B04BF022070474FEAB20239
:101F00000123032A80F83C3000F2EC802DE9F041F7
:101F1000DFE802F0023B77B2036842F600451C6A34
:101F20001A6AC4F2010522F001021A621A46D3F8B5
:101F300004C052F818EF8E6824F00204AB4244EA61
:101F4000060405D1CE6824F00C0426F004063443C0
:101F50000E68AB4206D1D1E905582CF440772F43E7
:101F600047EA080C2EF073073743C3F804C09F619B
:101F70004F6809695F631C629F6947F008079F61AA
:101F80009F6927F004079F61A6E0036842F60045B9
:101F90001C6A1A6AC4F2010522F010021A621A467B
:101FA000D3F804C052F818EF8E6824F02004AB4236
:101FB00044EA061407D1CE686FF0400724F0C0044D
:101FC00007EA061634430E68AB4206D1D1E905573D
:101FD0002CF4406C3D434CEA850C2EF4E64747EA6E
:101FE0000627C3F804C09F614F6809699F631C629C
:101FF0009F6947F400679F619F6927F480679F612D
:1020000069E0036842F600451C6A1A6AC4F20105D9
:1020100022F480721A621A46D3F804C052F81CEFF8
:102020008E6824F40074AB4244EA062407D1CE68DB
:1020300040F2FF47360224F44064BE4334430E6846
:10204000AB4206D1D1E905572CF4405C3D434CEA44
:10205000051C2EF073073743C3F804C0DF614F68D7
:102060000969DF631C62DF6947F00807DF61DF6928
:1020700027F00407DF612FE0036842F60047D3F83A
:1020800020C01A6AC4F2010722F480521A621A466A
:102090005C6852F81C5FD1F800E08E68BB4204D146
:1020A0004F6924F4804444EA87142CF4005747EA2B
:1020B000063725F4E64646EA0E265C60DE614E6889
:1020C00009691E641F62DF6947F40067DF61DF6929
:1020D00027F48067DF610902136819430023116048
:1020E000BDE8F041002180F83C1018467047000020
:1020F000002804BF0120704710B5044690F83D0049
:1021000028B9002084F83C00204600F065F8022041
:1021100084F83D00206840F2FF730268C4F20003B7
:1021200042F6004C9842C4F2010C05DCB0F1804F3D
:102130000AD040F2004103E0604505D040F60001BE
:10214000C4F20001884203D1A16822F070020A4360
:10215000984205DCB0F1804F0AD040F2004103E024
:10216000604505D040F60001C4F20001884203D169
:10217000216922F440720A43A36922F08001D4F855
:1021800004E0E268194360450160C262C0F828E0DB
:1021900002D16169CCF83010012141610269D20796
:1021A00003D0026922F001020261002084F8461087
:1021B00084F83E1084F83F1084F8401084F84110F1
:1021C00084F8421084F8431084F8441084F84510D1
:1021D00084F83D1010BD00000068B0F1804F18BFBA
:1021E000704781B041F21C00C4F20200016841F066
:1021F00001010160006800F001000090009801B04A
:10220000704700007047000041B1082909D0042937
:1022100014BF00F1410200F13F0204E000F13E0270
:1022200001E000F140021278012A1CBF0120704732
:10223000022241B1082909D0042914BF80F84120A5
:1022400080F83F2004E080F83E2001E080F8402044
:10225000006801F01F010122036A8A4023EA02019B
:102260000162036A42F64441C4F201011A43A1F13A
:1022700044039842026203D10A6842F400420A60B1
:1022800040F2FF71C4F20001884205DCB0F1804FDA
:102290000ED040F2004107E042F60041C4F20101D5
:1022A000884205D040F60001C4F20001884204D102
:1022B000816801F00701062903D0016841F001019E
:1022C000016000207047000080B5026801F01F0C1B
:1022D000012303FA0CFE136A42F6004C23EA0E03B4
:1022E0001362C4F2010C136A6245136211D1DCF867
:1022F00020C041F211131CEA030F0AD1D2F820C00A
:1023000040F244431CEA030F03D1536C23F400430F
:102310005364D2F820C041F211131CEA030F06D116
:10232000D2F820C040F244431CEA030F12D008291F
:1023300016D0042909D000294FF0010114BF80F8FC
:10234000411080F83E10002080BD012180F83F1030
:10235000002080BD136823F0010313600829E8D131
:10236000012180F84010002080BD0000006840F688
:102370000001C4F20001884218BF7047B0B540F2B6
:102380000404C2F20004207838BB40F21400C2F208
:1023900000000078022820D140F21205C2F20005A8
:1023A000288847F6D501013028802888C2F2E961E3
:1023B000484341F26E214FEAB000C0F283018842E7
:1023C00003D80120022100F029FD288841F287313D
:1023D00088421FD90020012110E02078022819D15D
:1023E00040F21200C2F20000018801310180008831
:1023F00040F6B93188420DD304200321217040F208
:102400001201C2F2000100220A8040F21401C2F25D
:102410000001087040F20504C2F20004207838BBC5
:1024200040F21800C2F200000078022820D140F2E9
:102430001605C2F20005288847F6D501013028802C
:102440002888C2F2E961484341F26E214FEAB000A8
:10245000C0F28301884203D80220022100F0DEFC92
:10246000288841F2873188421FD90020012110E0DD
:102470002078022819D140F21600C2F2000001882B
:1024800001310180008840F6B93188420DD3042023
:102490000321217040F21601C2F2000100220A80DD
:1024A00040F21801C2F20001087040F20604C2F2C4
:1024B0000004207838BB40F21C00C2F20000007813
:1024C000022820D140F21A05C2F20005288847F6FA
:1024D000D501013028802888C2F2E961484341F2E1
:1024E0006E214FEAB000C0F28301884203D8032076
:1024F000022100F093FC288841F2873188421FD9DD
:102500000020012110E02078022819D140F21A00A1
:10251000C2F20000018801310180008840F6B93123
:1025200088420DD304200321217040F21A01C2F227
:10253000000100220A8040F21C01C2F20001087072
:10254000BDE8B0407047000070470000002804BF9D
:102550000120704710B5044690F8410028B90020CA
:1025600084F84000204600F061F8242084F84100FF
:102570002068D4E90212C36823F40053C3600369DE
:1025800023F440531A430261D4E904231143C2687F
:10259000194341F20C639A431143C1604169A26936
:1025A00021F44071114343F60002C4F2010290424B
:1025B000416102D0FEF7F0FF01E0FFF701F8D4E936
:1025C0000023192148439900B0FBF1F048F21F5C49
:1025D000C5F2EB1CA0FB0C314FF69C734909C0F609
:1025E000FF7301FB0300322303EB0010A0FB0C037D
:1025F000F02000EA531000EB0110C3F3431108442C
:1026000090601069202120F490401061506920F002
:102610002A005061D06840F40050D060002060640F
:1026200084F8411084F84210606310BD70B586B024
:1026300040F60004C4F201040068A4F544410026F9
:1026400088420596CDE90366029601D006B070BDBA
:1026500041F21800C4F20200416802AD41F40031B9
:102660004160416801F4003101910199016841F034
:10267000040101600068294600F0040001900198FF
:102680000420029002200390032005902046FEF7CC
:10269000C5F80820CDE90206204629460496FEF733
:1026A000BDF806B070BD0000FEE700002DE9F04F58
:1026B00083B004460068DDF834B00C9E0768994684
:1026C00047F4806707600768904647F480730360AB
:1026D00040698A4610F001002AD180F00107751C7C
:1026E0000BE000BF20684069C00711D02068406936
:1026F00010F0010080F001071AD1002DF6D0FEF78E
:10270000A1F9002EEED0A0EB0B00B042EED9E9E724
:1027100000202021206384F83D1084F83E00216CC5
:1027200041F020012164F90784F83C0040F0B280B8
:1027300020680AF0FE0AC0F810A0416989072CD46D
:102740004169490514D4771C5FB1FEF77BF91EB1CE
:10275000A0EB0B00B04204D920684069800740F12B
:10276000D18020684169890717D441694905EBD5B3
:10277000016841F4007101606FF4806141610020E3
:102780002021206384F83D1084F83E00216C41F044
:102790000401216484F83C00B0E00020029020682D
:1027A00050F8141F029141680291029901680906CC
:1027B0001AD4771C0AE000BF20684069000640F187
:1027C0008880206850F8141F09060DD40168490557
:1027D0006BD4002FF5D0FEF735F9002EECD0A0EB2E
:1027E0000B00B042EDD9E7E72068B9F1010F21D025
:1027F0004FEA1821016150F8141F090619D4771CFB
:1028000009E000BF20684069000662D5206850F8E2
:10281000141F09060DD40168490546D4002FF5D0D0
:10282000FEF710F9002EEDD0A0EB0B00B042EDD971
:10283000E8E720685FFA88F10161206850F8141F0A
:10284000090618D4771C08E020684069000640D5C6
:10285000206850F8141F09060DD40168490524D4D6
:10286000002FF5D0FEF7EEF8002EEDD0A0EB0B0018
:10287000B042EDD9E8E7206800220168334641F410
:102880008071016020464FF00111CDF800B000F0DA
:1028900077F978B120680068C00544BF4FF4007034
:1028A0002064032003B0BDE8F08F6FF48061016005
:1028B00004200FE025684AF001070221C0F201015F
:1028C000204632465B462F6103B0BDE8F04F00F072
:1028D000A1B9202000212022216384F83D2084F822
:1028E0003E10226C1043206484F83C10206C0428B5
:1028F00004D12068016841F400710160012003B037
:10290000BDE8F08F00202021206384F83D1084F87A
:102910003E00216C41F020013BE700002DE9F04F23
:1029200081B00446006890460268DDF82CA042F4AD
:102930008072026040690A9E994610F001008B4641
:1029400034D180F00105771C0BE000BF206840699E
:10295000C00711D02068406910F0010080F0010527
:1029600024D1002FF6D0FEF76DF8002EEED0A0EBAC
:102970000A00B042EED9E9E700202021206384F864
:102980003D1084F83E00216C41F020012164E907EC
:1029900084F83C000AD020680068C00544BF4FF4AA
:1029A00000702064032001B0BDE8F08F20680BF0B8
:1029B000FE010161416989072DD44169490515D49A
:1029C000751C00BF5DB1FEF73DF81EB1A0EB0A001B
:1029D000B04204D920684069800740F18C802068AB
:1029E0004169890717D441694905EBD5016841F46C
:1029F000007101606FF4806141610020202120633B
:102A000084F83D1084F83E00216C41F004012164FB
:102A100084F83C006BE000200090206850F8141F00
:102A200000914168009100990168090619D4751C4C
:102A300009E000BF20684069000643D5206850F8CF
:102A4000141F09060DD4016849052ED4002DF5D0B8
:102A5000FDF7F8FF002EEDD0A0EB0A00B042EDD953
:102A6000E8E72068B9F1010F25D04FEA182101618C
:102A700050F8141F09061DD4751C08E02068406931
:102A800000061FD5206850F8141F090612D40168EB
:102A900049050AD4002DF5D0FDF7D4FF002EEDD066
:102AA000A0EB0A00B042EDD9E8E76FF48061016065
:102AB000042008E020685FFA88F10161002001B07D
:102AC000BDE8F08F202000212022216384F83D20E2
:102AD00084F83E10226C1043206484F83C10206C73
:102AE000042804D12068016841F4007101600120CC
:102AF00001B0BDE8F08F00202021206384F83D1054
:102B000084F83E00216C41F0200180E7F0B581B0EF
:102B100004460068154650F8143F5A0718D40E466C
:102B20004F1C08E020684069400719D5206850F81C
:102B3000141F49070CD4016849050CD4002FF5D0A7
:102B4000FDF780FF002EEDD0401BB042EED9E9E743
:102B5000002001B0F0BD6FF480610160042000E04E
:102B6000202000212022216384F83D2084F83E109B
:102B7000226C1043206484F83C10012001B0F0BDA9
:102B80002DE9F047DDF8208099461646044601F409
:102B90007F078DB203F1010A0EE000BF2068182103
:102BA000B7F5803F08BF142140582840401BB0FAB9
:102BB00080F04009B0421DD020681821B7F5803F51
:102BC00008BF142140582840401BB0FA80F040094B
:102BD000B0420CD1BAF1000FEED0FDF733FFB9F1DE
:102BE000000FDBD0A0EB08004845E5D9D6E7002070
:102BF000BDE8F08700202021206384F83D1084F890
:102C00003E00216C41F02001216484F83C00012049
:102C1000BDE8F0872DE9F041044600689846436915
:102C20008FB203EA0701B94202D10020BDE8F0816A
:102C30004169490517D41646551C00BF5DB1FDF723
:102C400001FF1EB1A0EB0800B04204D92068406922
:102C50003840B8421ED1206841693940B942E4D0B9
:102C600041694905EAD5016841F4007101606FF4DA
:102C700080614161042000212022216384F83D20ED
:102C800084F83E10226C10432064012084F83C102C
:102C9000BDE8F0812020EEE72DE9F04184B040F25C
:102CA00054060446C2F2000696F83D00202808D0DB
:102CB000FDF7C8FE0546FDF7C5FE401B0B28F3D304
:102CC00023E040F25405201D0221C2F20005052731
:102CD000CDE9000128468021FF2201230297FDF75C
:102CE0006FFFA08842F2320241BA9042A1800CD11B
:102CF00095F83D0020280CD0FDF7A4FE0646FDF710
:102D0000A1FE801B0B28F3D31BE0032004B0BDE819
:102D1000F0810020207047F22750A04628F8020FCB
:102D200095F83D70202F10D0FDF78CFE0646FDF77C
:102D300089FE801B0B28F3D3202F02D10520FDF73D
:102D40002FFC022004B0BDE8F0816088227800BA30
:102D5000000C60800220CDE9008040F2540005267E
:102D6000C2F20000802101230296FEF73BF9202FDA
:102D7000E4D0E6E70021017043F24951C0F60001BA
:102D800043F24D7243F281530430C0F60002C0F6A4
:102D900000030EC070470000FF2101700021C0F841
:102DA0000210C0E90211C0E90411C0E9061142F69F
:102DB0009941C0F6000143F2855243F621032430C5
:102DC000C0F60002C0F600030EC07047B0B540F672
:102DD0000004C4F20104204610210022FDF72CFE5D
:102DE000204640210022FDF727FE04F58065284695
:102DF00001210022FDF720FE204620210022FDF7C0
:102E00001BFE204680210022FDF716FE28460221E7
:102E10000022BDE8B040FDF70FBE0000B0B50529A7
:102E200000F27581DFE801F0033F5067178E01382B
:102E3000052800F26C810FF20601DFE810F00600B1
:102E4000C300C900D100D700DD0040F60000C4F285
:102E500001001021D7E0FDF7F5FD40F22404C2F295
:102E600000042168401AFB28C0F05181FDF7EAFDFB
:102E700040F21E05C2F2000529782060032900F205
:102E80003F81DFE811F004001C012301290140F615
:102E90000004C4F20104204640210122FDF7CCFDCC
:102EA0002046802129E10138052800F230810FF207
:102EB0000601DFE800F003ADB3BBC1C740F6000078
:102EC000C4F201001021C4E00138052800F21F817E
:102ED0000FF20401DFE810F00600C200CB00D600BC
:102EE000DF00E80040F60000C4F201001021BDE858
:102EF000B040FDF799BDFDF7A5FD40F22004C2F2F8
:102F000000042168401AFB28C0F00181FDF79AFDFA
:102F100040F21D05C2F2000529782060032900F265
:102F2000EF80DFE811F00400F500DF00E50040F677
:102F30000004C4F20104204610210122FDF77CFDAB
:102F40002046D9E0FDF77EFD40F22804C2F20004DD
:102F50002168401AFB2838BFB0BDFDF773FD40F271
:102F60001F05C2F2000529782060032900F2C880FD
:102F7000DFE801F0020F182040F60000C4F2010063
:102F800000F58064204601210122FDF755FD204611
:102F900016E040F60000C4F2010000F58060022156
:102FA0000122ABE040F60000C4F2010000F58060B1
:102FB0000121A2E040F60000C4F2010000F58060AB
:102FC00002219AE040F60000C4F2010040211AE01C
:102FD00040F60000C4F2010000F58060012112E01B
:102FE00040F60000C4F2010020210CE040F6000091
:102FF000C4F20100802106E040F60000C4F20100A6
:1030000000F5806002210022BDE8B040FDF714BD4C
:1030100040F60000C4F2010040211AE040F6000032
:10302000C4F2010000F58060012112E040F60000CA
:10303000C4F2010020210CE040F60000C4F20100BF
:10304000802106E040F60000C4F2010000F5806037
:1030500002210122BDE8B040FDF7EEBC40F60000C1
:10306000C4F201004021BDE8B040FDF7DDBC40F6F0
:103070000000C4F2010000F580600121BDE8B0400D
:10308000FDF7D2BC40F60000C4F201002021BDE8EB
:10309000B040FDF7C9BC40F60000C4F20100802139
:1030A000BDE8B040FDF7C0BC40F60000C4F201002E
:1030B00000F580600221BDE8B040FDF7B5BC40F6E8
:1030C0000000C4F201008021012217E040F6000058
:1030D000C4F20100402110E040F60000C4F20100FB
:1030E00080210AE040F60000C4F20100102104E053
:1030F00040F60000C4F2010020210022FDF79CFCF4
:1031000028780130C1B2032988BF00202870B0BDE3
:1031100040F60000C4F2010020210122EEE7000089
:1031200080B540F22C0046F20041C2F20000C4F229
:1031300000010622002380E80E0000F10C014FF48C
:10314000003C4FF4801E81E8085083618383FDF7C3
:103150005DF9002808BF80BDBDE88040FDF750B98B
:103160002DE9F04786B0002741F21800CDE9047739
:10317000CDE90277C4F20200016840F6004941F04F
:10318000200101600168C4F2010901F020010191F0
:1031900001990168A9F5806541F0040101600168A9
:1031A000002201F004010191019901684FF4FE66CB
:1031B00041F00801016000684FF4FE6100F0080072
:1031C000019001982846FDF737FC4846032100226C
:1031D0004FF00308FDF730FC029602AE4FF0010AF3
:1031E000022428463146CDE903A70594FDF716FBD6
:1031F00048463146CDE9028ACDE90474FDF70EFB5D
:10320000382002900020C1F23100CDE90307484682
:103210003146FDF703FB092001210022FEF7A2F849
:103220000920FEF78FF80A2001210022FEF79AF804
:103230000A20FEF787F8172001210022FEF792F8F6
:103240001720FEF77FF806B0BDE8F08780B540F2A2
:10325000540045F20041C2F20000C4F2000141F600
:10326000802200234FF4804CC0F2060280E80E005A
:10327000C0E9033CC0E90533C0E90733FDF7E8FBCB
:10328000002808BF80BDBDE88040FDF7B9B8000048
:1032900080B540F2A80043F20001C2F20000C4F27F
:1032A0000001062240F6FF7380E80E00FDF7AAFF3A
:1032B000002808BF80BDBDE88040FDF7A1B8000030
:1032C00080B586B040F2B40042F600420021C2F25E
:1032D0000000C4F2010241F61F4340F2E73CCDE991
:1032E0000411CDE90211CDE90011C0E90023C0E9C4
:1032F000021CC0E904118161FEF76EFB002818BFB3
:10330000FDF77EF84FF48050029040F2B400C2F214
:10331000000002A9FEF760FC002818BFFDF770F856
:103320000020CDE9000040F2B400C2F2000069467E
:10333000FEF714FB002818BFFDF762F806B080BD49
:10334000B0B590B040F2FC000024C2F200004FF093
:1033500080410994CDE90744CDE90544CDE9034412
:10336000CDE901448461C0E90014C0E9024404616C
:10337000FEF7BEFE002818BFFDF742F840F2FC0041
:10338000C2F2000008A9CDE90844FEF7E7FA0028D8
:1033900018BFFDF735F840F2FC046020C2F20004CB
:1033A0000190002501A920460422CDE9025505958A
:1033B000FEF79EFD002818BFFDF722F82068CDE932
:1033C0000E55B0F1804F0D950C9501D010B0B0BDE9
:1033D00041F21800C4F20200016841F004010160EA
:1033E00000680CA900F004000B900B980220CDE9B6
:1033F0000C000F9040F60000C4F20100FDF70EFA39
:1034000010B0B0BD80B586B040F2441040F200422A
:103410000021C2F20000C4F2000240F2CF2340F2C9
:10342000E73CCDE90411CDE90211CDE90011C0E975
:103430000023C0E9021C01618161FEF7CDFA00287A
:1034400018BFFCF7DDFF4FF48050029040F24410AB
:10345000C2F2000002A9FEF7BFFB002818BFFCF76C
:10346000CFFF0020CDE9000040F24410C2F200007E
:103470006946FEF773FA002818BFFCF7C1FF06B0D3
:1034800080BD000080B586B040F28C1040F600028E
:103490000021C2F20000C4F20002472340F2E73CE0
:1034A000CDE90411CDE90211CDE90011C0E90023F5
:1034B000C0E9021C01618161FEF78EFA002818BF85
:1034C000FCF79EFF4FF48050029040F28C10C2F245
:1034D000000002A9FEF780FB002818BFFCF790FF50
:1034E0000020CDE9000040F28C10C2F200006946D5
:1034F000FEF734FA002818BFFCF782FF06B080BD43
:1035000080B540F2D41044F20041C2F20000C4F28F
:10351000000100234FF00C0C4FF4E13280E80E0064
:10352000C0E90333C0E905C3C361FFF70FF8002802
:1035300008BF80BDBDE88040FCF762BFFEE7000029
:10354000FEE700007047000070B540F60005C4F2C9
:103550000105044628464FF4807100220026FDF73D
:103560006BFA28464FF400710022FDF765FA2846F1
:103570004FF480610022FDF75FFA0020267070BDD5
:10358000007870472DE9F04F83B00D46044629B10D
:10359000E96819B12846884784F8200040F21C2BBE
:1035A000C2F2000B9BF80000032821D8DFE800F0EE
:1035B00002141B2294F8210005280BD894F820103F
:1035C000420821FA02F2D20717D10130062884F806
:1035D0002100F5D1022009E002208BF80000012033
:1035E00003B0BDE8F08F002084F821008BF80000C4
:1035F0009BF8000003B0BDE8F08F52A1095CC00742
:10360000217010D140F25407C2F2000797F83D60D4
:10361000202E1AD0FDF716FA0546FDF713FA401BC7
:103620000B28F3D324E040F25408C2F2000800BF94
:1036300098F83D70202F2DD0FDF704FA0646FDF7CF
:1036400001FA801B0B28F3D337E0201D02212278DA
:10365000CDE9000140F254000127C2F200008021B0
:1036600001230297FDF7ACFAA08800BA000CA080F5
:10367000202E65D1A088FCF7C1FD0021C4F27A415B
:10368000FCF762FD94F8211001F0FE0104EB41010A
:1036900088604EE0201D02212278CDE9000140F231
:1036A00054000126C2F20000802101230296FDF79A
:1036B00087FAA08800BA000CA080202F40D1A088F3
:1036C000FCF79CFD0021C4F2FA31FCF73DFD94F8B3
:1036D000211004F1140201F0FE0142F8110040F241
:1036E0000009D4E9050AC4F2F019D4F81C8049464F
:1036F000FCF776FD064600285046494618BF0126CD
:10370000FCF76EFD00284046494618BF0236FCF71C
:1037100067FD002818BF04363046002E18BF012070
:103720004000FCF705FEAF682846314601223346CB
:10373000B84794F82100013084F82100002055E7B3
:10374000032053E702010403060500002DE9F043BE
:1037500081B0044640F60008B2FA82F09946164657
:103760000D46C4F20108C9074FEA501715D040466C
:103770004FF480713A46FDF75FF9207836B300F0D8
:10378000FE005FEAC971207007D004200121FFF715
:1037900045FB01200021FFF741FBA8071FD540464C
:1037A0004FF400713A46FDF747F92078A6B100F0D2
:1037B000FD005FEA8971207011D505200121FFF716
:1037C0002DFB02200021FFF729FB08E040F001005B
:1037D0002070A807E3D402E040F0020020706807E0
:1037E00019D540464FF480613A46FDF725F9207817
:1037F00076B100F0FB005FEA497120700BD506201E
:103800000121FFF70BFB03200021FFF707FB02E07C
:1038100040F004002070207801B0BDE8F083000083
:103820002DE9F04100F108080C4698E82201002734
:10383000C4F2B81708463946FCF7C4FC064600280F
:103840002846394618BF0126FCF7BCFC0028404634
:10385000394618BF0236FCF7B5FC002818BF0436FD
:10386000D4F808C02046314601223346BDE8F04175
:103870006047000070470000FDF7F4BC704700008F
:1038800040F2B400C2F20000FEF78ABA40F24410DF
:10389000C2F20000FEF784BA40F28C10C2F20000BF
:1038A000FEF77EBAFEE7000090B0FDF7E9FC06AC3B
:1038B00020462821FCF73DFC0920002506904FF406
:1038C00080300226CDE90705CDE90D604FF4E01008
:1038D00001210F9020460595CDE90355CDE901550D
:1038E0000A910C91FDF780FE18B1EFF3108072B6CB
:1038F000FEE70F20CDE901064FF48060CDE9040515
:1039000001A802210395FDF769FD20B1EFF31080B6
:1039100072B600BFFEE7FFF723FCFFF701FCFFF7DD
:1039200095FCFFF7CDFCFFF70BFDFFF76BFDFFF7F5
:10393000A9FDFFF7E5FDFFF7ABFCFCF7B5FCFFF7D2
:1039400045FAFCF7E7FC0120FCF7F2FC40F22024EA
:10395000C2F200042046FFF70DFA40F23025C2F211
:1039600000052846FFF718FA616820468847696A0B
:103970002846884740F2100140F2060B40F2140A34
:1039800040F2180840F21C09C2F20001C2F2000B1A
:10399000C2F2000A0027C2F20008C2F20009087051
:1039A00003E000BF0A20FCF7FBFD40F20400C2F276
:1039B00000000078022803D101200321FFF72EFA2E
:1039C00040F20500C2F200000078022803D1022074
:1039D0000421FFF723FA9BF80000022803D10320FB
:1039E0000521FFF71BFA9AF80000042809D1207876
:1039F000A66800F00102204601210023B0478AF8A2
:103A0000007098F80000042809D12078A668C0F357
:103A10004002204602210023B04788F8007099F840
:103A20000000042809D12078A668C0F3800220464F
:103A300004210023B04789F80070AA6A284621466D
:103A4000904740F210010128C2F200010870A9D18C
:103A5000EA6A284621469047A4E702E008C8121FF8
:103A600008C1002AFAD170477047002001E001C167
:103A7000121F002AFBD17047000000000000000068
:103A80000102030406070809000000000102030404
:103A9000010202030405060708090A0B0C0D0E0FAC
:103AA00010100000C83A00080000002010000000BC
:103AB0005A3A0008D83A00081000002058060000C2
:103AC0006A3A00080000000000127A0001010101BA
:083AD0001000000000000000DE
:04000005080000ED02
:00000001FF
